:020000040800F2
:2000000000000220D91B0008D71B0008D51B0008D51B0008D51B0008D51B000800000000E8
:20002000000000000000000000000000D71B0008D71B000800000000D71B0008CD020008FB
:20004000D51B0008D51B0008D51B0008D51B0008D51B0008D51B0008D51B0008D51B0008E0
:20006000D51B0008D51B0008D51B0008D51B0008D51B0008D51B0008D51B0008D51B0008C0
:20008000D51B0008D51B0008D51B0008D51B0008D51B0008D51B0008D51B0008D51B0008A0
:2000A000D51B0008D51B0008D51B0008D51B0008D51B0008D51B0008D51B0008D51B000880
:2000C000D51B0008D51B0008D51B0008D51B0008D51B0008D51B0008D51B0008D51B000860
:2000E000D51B0008D51B0008D51B0008D51B0008D51B0008D51B0008D51B0008D51B000840
:20010000D51B0008D51B0008D51B0008D51B0008D51B0008D51B0008D51B0008D51B00081F
:20012000D51B0008D51B0008D51B0008D51B0008D51B0008D51B0008D51B0008D51B0008FF
:20014000D51B0008D51B0008D51B000839080008D51B0008D51B0008D51B0008D51B00088E
:20016000D51B0008D51B0008D51B0008D51B0008D51B0008D51B0008D51B0008D51B0008BF
:20018000D51B0008D51B0008D51B0008D51B0008D51B0008D51B0008D51B0008D51B00089F
:2001A000D51B0008D51B0008D51B0008022901D100F04ABB7047000010B5074C237813F0F8
:2001C000FD0F02D04FF0FF3010BD00F09DFB0028F8DB0223637010BD60000020084B10B526
:2001E00058601C46FFF7E8FF002804DB054A53680133536010BD6368002BF3D110BD00BFFD
:20020000000800206000002008B5FFF7E7FFA0F120035842584108BD034B1B7813F0FD0F01
:2002200001D100F07BBB704760000020054B996810B54A1CDC68D2B2A2421EBFC9189A60AF
:20024000087410BD60000020064AD36891688B421FBFD1180133DBB2087C14BFD3604FF033
:20026000FF3070476000002038B5134C2368013320D0124D124B2A689A421BD9114B9B68A0
:2002800003F1006303F580439A4213D201F010F801F006FD01F014FD00F016FB00F094FB1C
:2002A00000F072FB084B1C6023682A6883F308881047FEE738BD00BF00400008044000086B
:2002C000FF3F00084800002008ED00E0104AD2F81031013310B5C2F8103100230D4951F880
:2002E00023000C4620B151F82300013841F823000133042BF2D192F814313BB9A3682BB9DF
:20030000022000F079FC034B32229A6010BD00BF6000002000080020024BD860DA68002A95
:20032000FCD17047000800202DE9F04FC54DC64FDFF830A300268FB02E7081460420BC68D9
:2003400001F09AFCFB684FF47A70584301F08CFC01F09EFC01F0ACFCB9F1000F01D0CAF802
:20036000009085F81461CAF808604FF0FF38012000F036FCB9F1000F04D0DAF80030002B5E
:2003800000F0F8810020FFF729FF0390039B002BF0DB012000F018FC039B213B102BE6D877
:2003A00001A252F823F000BFED030008FB0300085B0400086F0300086F0300086F030008AB
:2003C000B90400086F03000855050008D70500080D06000869060008A706000881060008C2
:2003E0006F030008010700083D0700080220FFF70BFF002840F0A281B0E14FF47A70FFF7D6
:20040000EDFE061EC0F2AA810220FFF7FDFE002800F0A481701E042800F2A081DFE800F01C
:20042000030507090E00894804E0874802E0884800E088480421FFF7EFFE7FE11C26304690
:2004400000F000FB0EAB042143F8140D04361846FFF7E2FE2C2EF2D170E10220FFF7D4FEB1
:20046000002800F07B810123022085F8143100F0ABFB00F00BFF0026304600F0C9FA044637
:2004800020B1304600F0E8FA0136F5E7022085F8140100F0A5FBBB689C4207D2204600F0BC
:2004A000D1FA013040F05D810434F4E7002485F81441CAF8084041E13220FFF78FFE061E04
:2004C000C0F24C8116F0030B40F04881BA683319934200F24381B6F5807F00F23F81B34543
:2004E0000FD04FF47A70FFF779FE0390039B002BC0F23481584B039A0BF803200BF1010B52
:20050000EDE7C820FFF780FE002800F027812CB94FF0FF33D5F81881C5F8183126F003060A
:200520002644A346B34513D04B4B1B1B584653F80B10019300F080FA584600F083FA019B18
:2005400053F80B30984240F00B810BF1040BE9E75C46F3E00220FFF757FE002800F0FE802C
:200560000026B146BB689E4231D22EB9B8F1FF3F02D0CDF8248003E0304600F063FA099010
:20058000D5F81C3293B91A46082112F0010F4FEA520016BF314A024642400139F5D130493B
:2005A00041F823200133B3F5807FECD1002209ABD35C83EA0903DBB205EB83030132D3F8A8
:2005C0001832042A83EA1929F1D10436CAE70EA840F8289D2EE700266420FFF7FFFD0028BB
:2005E000C0F2BC8009ABF0540136042EF4D10220DDF824B0FFF708FE002800F0AF8058463B
:2006000000F05CFA0EAB43F8240D19E000266420FFF7E4FD0028C0F2A18009ABF0540136CB
:20062000042EF4D10220DDF824B0FFF7EDFD002800F09480584600F0C1FA0EAB43F8200D82
:2006400018462EE06000002048000020A42200084C00002050000020780100202083B8EDBB
:2006600078020020000800200220FFF7CDFD002874D000F033FA0EAB43F81C0D1846D9E613
:200680000220FFF7C1FD002868D009A9142000F02BFA06460EA8042140F8186DFFF7BCFD96
:2006A00009A83146C7E66420FFF798FD002855DB5FFA80FBBBF11E0F50D80220FFF7A4FD70
:2006C00000284BD04FF4D07000F0BCF906464FF4D27000F0B7F9294B9E423FD1284B98428D
:2006E0003CD1284E4BEA06064FF4D070314600F0A3F94FF4D07000F0A5F9B04231D11DE0AE
:200700004FF47A70FFF780FD40B3B8F1FF3F0BD11D4B09A81B88ADF824300221FFF77CFD3C
:200720006420FFF7F9FD25E00020414600F084F9002000F087F9404513D1E9E72A78134B67
:200740000AB95A781A70104B09A81B88ADF824300221FFF761FD4FF0000908E60C4B01E0ED
:200760005C460C4B1B88ADF8243009A80221FFF753FDFCE50FB0BDE8F08F00BFFFECC29208
:200780005D7D05C500ECC292A822000860000020AA220008AC220008497821290BD0222948
:2007A0000BD0202901D0002070471888062894BF002001207047024B13600120704700BFFD
:2007C000B022000837B5104B00930446002501210222402300F00CFE204600958221022291
:2007E000402300F005FE2046009583210322102300F0FEFD054B204621217F2203B0BDE8D0
:20080000304001F0EBB800BF110800089907000830B591B001216A46402300F012FE0024CD
:200820000546AC4205D21DF80400FFF7FFFC0134F7E711B030BD0000024B186808B100F067
:20084000CDBD7047780600201FB5174C1748012100F08AFD1648802100F086FD20464FF46F
:20086000D0530221002200F0A5FC20460A21114C4FF4D05200F0D6FC032300930E4A0F4802
:20088000231D019380230293D11D0D4B193200F081FD0C49206000F09EFF432004B0BDE82F
:2008A000104001F015BA00BF00000240303802403438024078060020B0220008EC2400083F
:2008C00000000020C507000810B50C4C432001F00BFA206820B1012100F084FD002323601C
:2008E000002107480A464FF4D05300F063FC05488021BDE8104000F03BBD00BF780600205B
:200900000000024034380240034B1B680BB1FFF79BBC4FF0FF307047780600200B4B1A6872
:2009200070B506460C461D4602B970BD64B1402C234628BF40233246286882219BB200F08D
:2009400078FD241A0644F1E770BD00BF780600200A4B1A6842F480721A60094A116841F4BE
:200960000041116007490860116801F4004111601A6822F480721A60704700BF00700040C3
:20098000703802405028004010B50C4C00210A4620464FF4007300F00DFC00210A4610236E
:2009A000204600F007FC06484FF0805100F0E0FC044B4FF480121A6010BD00BF0000024048
:2009C000403802403038024010B5022000F0FEFA022000F0D5FA0A4B00241C60012000F0FD
:2009E00017FB204600F014FB00F034FB054B064A1A60012000F036FB044B1C6010BD00BFAE
:200A00000838024004380240103000240C380240074B1B88B3F5806F0CBF0B231723984253
:200A20003DBF044B03EBC00040680020704700BF227AFF1F7823000800F1006000F580401C
:200A400000F052BC830703BF00F1006000F580400068002070470000F8B5164B1B88B3F5AE
:200A6000806F0CBF0B2317239842054621D200242646AC4205D02046FFF7CAFF0134064445
:200A8000F7E72846FFF7C4FF00240746BC4206D2A019FFF7D7FF013002D10434F6E7F8BDB7
:200AA000054B4FF4007113F83500BDE8F84000F033BCF8BD227AFF1F78230008034610F0DB
:200AC000030008D1B3F5007F06D803F10053A3F5084318687047002070470000014B186831
:200AE000704700BF002004E0F0B5264B264D1C682A7A6B68C4F30B0E0027240C2E460C252C
:200B00007D4336F805C0E64504D11F4A2A445368127A02E00137052FF1D142F20105AC42CC
:200B20002CD0B4F5805F08D041F20105AC420BD041F20305AC4209D000E0412241F20705D3
:200B4000AC4208BF312202E05A2200E05922451E0D445E1E0C46AC420ED216F8010F631CE7
:200B600018B11C4603F8010CF5E72C20AB42207006D2A31C627003E0234601E03322DDE7EE
:200B8000581AF0BD002004E00C0000200A4B5B88A3F58052012A0BD941F20302934207D071
:200BA00041F2070083424FF0FF3018BF002070474FF0FF30704700BF002004E0014BC058CE
:200BC000704700BF107AFF1F012802D0022800D070470248102100F0DFBA00BF0000024046
:200BE000012802D0022800D070470248102100F0D1BA00BF00000240012802D0022800D05D
:200C000070470248102100F0CDBA00BF0000024070B5042001F030F83A4B3B4C9B6C3B4D2D
:200C20004FF47A70584301F01FF801F031F801F03FF8012323702B686360237833B1324A9A
:200C40002B6852689B1AB3F5FA6F02D3237A002B52D0637AA3B92E48012100F0A0FA78B936
:200C6000294B00F18040012200F501304FF480615A7200F08FFA27484FF4805100F08AFAA6
:200C8000237A214E53B9737A43B12148012100F086FA012802BF2B683072F360237A1A4EE9
:200CA000002BCAD02B68F2689B1AB3F57A7F18D91948022100F06EFA1648042100F06AFA88
:200CC00014484FF4806100F067FA12484FF4805100F060FA0E484FF40051BDE8704000F05C
:200CE00059BA0B48012100F05AFA0028A5D1074B30721B687360A0E70748022100F04CFA11
:200D0000FAE700BF0C000020FC06002070010020000802400004024000000240884A136835
:200D200043F4700370B51360864B874D1C88103CA4026C64FFF72AFF70B1B4F5FE1F0BD184
:200D40006FF03F02002385F845200F2285F8443085F8462085F847307C48012100F004FB20
:200D600002224FF400737A48002100F023FA7748012100F0F9FA764801210022102300F0C0
:200D800019FA00210A461023714800F030FA7048102100F001FA6D48042100F0E5FA6D4897
:200DA000012100224FF4005300F004FA00210A464FF40053674800F01AFA66484FF400516F
:200DC00000F0EAF9022201236248002100F0F2F95E48022100F0C8FA5F48012100224FF4A9
:200DE000805300F0E7F900210A464FF480535A4800F0FDF958484FF4805100F0CDF9564839
:200E0000012100224FF4806300F0D4F900210A464FF48063504800F0EAF94F484FF48061EE
:200E200000F0BAF94C4801210022042300F0C2F900210A460423484800F0D9F946480421C8
:200E400000F0AAF9022213464148012100F0B2F900210A4602233E4800F0C9F93C480221C7
:200E600000F098F93A4801210222802300F0A2F900210A468023364800F0B9F980213448AA
:200E800000F08AF940F6880000F077FA334800F035F92F484FF4007100F081F908B9FFF7DB
:200EA000B7FE2F4B1A6842F480721A602D4A116841F4004111602C490868116801F4004174
:200EC00011601A6822F480721A60284B984205D100200024FFF73CFD254602E041F28834CB
:200EE0000125234A234B1168234A1B6891420ED1224A23F0FF01914209D1DBB21E2B06D8F6
:200F00004FF47A7253439C4238BF1C46002510484FF4007100F043F9064630B92DB1FFF76F
:200F2000A3F91248FFF714FD344600200221FFF73DF92046FFF7F8F90024FFF795F9F8E7F7
:200F400088ED00E0227AFF1F0C00002030380240000002400008024000040240302400087E
:200F600000700040703802405028004007B007B0A4410008A04100085D7D05C500ECC292F7
:200F800004281CD8DFE800F003080D1217000C4B1B689B01FBD57047094B1B689803FBD5FA
:200FA0007047074B1B689907FBD57047054B1B689A07FBD57047044B1B689B07FBD5704788
:200FC000003802407038024074380240042817D8DFE800F003080D0F11000A4A136843F0B3
:200FE00080730CE0074A136843F4803307E0054A02E0054A00E0054A136843F001031360A1
:20100000704700BF003802407038024074380240042817D8DFE800F003080D0F11000A4AAA
:20102000136823F080730CE0074A136823F4803307E0054A02E0054A00E0054A136823F089
:2010400001031360704700BF003802407038024074380240024A136823F400231360704726
:2010600000380240012802D0032805D07047054A136823F4802303E0034A136823F00403FB
:20108000136070470038024070380240034A136823F0030318431060704700BF083802401E
:2010A000034A136823F4604343EA40301060704708380240034A136823F4E05343EA802089
:2010C0001060704708380240034A136823F0F00343EA0010106070470838024040EA036323
:2010E00043F480035208013A43EA811141EA0243014A1360704700BF0438024010B50446B1
:201100000220FFF763FF0220FFF73AFF0020FFF7BDFF0120FFF75AFF0120FFF731FFE07B20
:2011200000B1012000F0ECFD207BFFF7CDFF607BFFF7C0FFA07BFFF7B3FF22796379207845
:201140006188FFF7CBFF0F4B1A6842F080721A601A689201FCD5A06800F08EF80220FFF7F0
:2011600095FF094B186800F003000228F9D1074B22691A60064B62691A60BDE81040FFF748
:2011800047BF00BF0038024008380240580000205C000020816170470904816170470069F2
:2011A00008407047426921EA0203114043EA014181617047F0B50668C568002743FA07F47D
:2011C000E4070ED54FEA470E032404FA0EF4E443264001FA0EFC2C4002FA0EF546EA0C064D
:2011E00025430137102FE9D10660C560F0BD012941680CBF1943994370B541608168002475
:2012000043FA04F5ED0741BF03256600B540A94304F1010444BF02FA06F52943102CEFD1D9
:20122000816070BDF0B5046A436A002542FA05F6F70741BF0F26AF00BE40B44305F10105B1
:2012400044BF01FA07F63443082DEFD1002505F1080642FA06F6F60741BF0F26AF00BE40E7
:20126000B34305F1010544BF01FA07F63343082DEDD104624362F0BD034A136823F007037B
:2012800018431060704700BF003C0240054A136843F000431360044B044A1A6002F1883218
:2012A0001A607047103C0240043C024023016745024A136843F0004313607047103C024028
:2012C000024B1B68DB03FBD4704700BF0C3C0240044B1A6822F440721A601A681043186031
:2012E000704700BF103C024070B50A4C0E460546FFF7E6FF4FF40070FFF7EAFF236843F0A5
:20130000010323602E60FFF7DBFF236823F00103236070BD103C024038B50C460546FFF788
:20132000CFFF20460F4CFFF7D3FF236823F0F80323602368ED00EDB21D432560236843F080
:2013400002032360236843F480332360FFF7B8FF236823F002032360236823F0F80323601E
:2013600038BD00BF103C02400368194301607047036823EA010101607047430903F18043B7
:2013800003F50E3300F01F001968012282400A431A6070472DE9F0411E46036805468846F2
:2013A00017469847069BC360079B0361BDF820308382074BC366074B8366074BC0F8D45039
:2013C000C0F80080476086604366BDE8F08100BF031A00085D1A0008E31A0008D0F8D43055
:2013E0005B6A1847D0F8D4309B6A03B11847704710B5D0F8D440A468A446BDE810406047FB
:2014000037B5002405468475C4752146224640230094FFF7EDFFD5F8D43028465B6821462E
:201420009847EB691BB103B0BDE83040184703B030BD10B5D0F8D440E469A446BDE8104019
:20144000604710B5D0F8D440246AA446BDE810406047D0F8D4301B691847D0F8D4309B69B1
:2014600018471988012984BF012119801368C27D1A70012070474A8812B91A800120704719
:201480000020704701201880136800221A7070471988022984BF02211980116800230B70FC
:2014A00012680120537070471988022984BF02211980116800230B70126801205370704720
:2014C00038B514461A882568022A84BF02221A808988C9B2FFF7C1FF003018BF0120287067
:2014E000236800225A70012038BD08B589880122C9B2FFF7AEFF012008BD08B5898800227A
:20150000C9B2FFF7A6FF012008BD10B50B786BB94C887F2C0AD8D0F8D430847593F8302062
:2015200032B149885B68C9B2984701E0002010BD012010BDF8B54B88C27D9A4204460E46E5
:2015400015D0C375D0F8D430DB68984700236364E3646365E36504F1C00504F1D00755F86C
:20156000043F13B1204671889847BD42F7D10120F8BD2DE9F04F05464888C6B2000A02286D
:2015800089B090461F460FD0032800F0E480012840F01D812B6813602B683A881B789342BF
:2015A00028BF13463B8013E12B69136001930D23D5F804803C8801985E4308EB060318F816
:2015C00006500293A54228BF254619462A4600F0A1FD019B18F80660641B2B44A4B2002212
:2015E0000592029A1179BDF81420914240F2AF800C214A430392029A0399D2F809200A4449
:20160000D2F80490B9F1000F14D099F80080A04528BFA04618464246494600F07BFD99F89E
:2016200000200346C8EB0404454416444344A4B2ADB2B6B200220492029A0398D2F809102D
:20164000039A01EB020EBDF8102009588A427BDA4FF0150909FB02F9DEF808B01BF8098004
:20166000A04528BFA0460BEB090A18465146424600F050FD1BF80920DAF80D100346C8EBCE
:201680000404454416444344A4B2ADB2B6B2A9B1DAF81180A045A8BFA0461FFA88F81846D5
:2016A000424600F037FDDAF811200346C8EB0404454416444344A4B2ADB2B6B20022069236
:2016C000BDF818909AF804204A453AD9DAF809C0CDF81CC0C9EB09190CEB090B1CF809809B
:2016E000A04528BFA04618465946424600F012FDDDF81CC0DBF807101CF809200346C8EBE0
:201700000404454416444344A4B2ADB2B6B2A9B1DBF80B80A045A8BFA0461FFA88F8184659
:20172000424600F0F7FCDBF80B200346C8EB0404454416444344A4B2ADB2B6B2069A0132E2
:20174000BDE7049A013276E7059A013248E7019B5E803D8039E02C6956B90923A37004235C
:20176000E37023703B88042B28BF04233B8028E0A868013E60B3EB689E4228DA8A8840F2E5
:2017800009439A4223D150F8260000F05DFD01304000C0B220703B88984228BF18464FEAE7
:2017A0008609388000223B885B08013B9A4208DAAB6853F80930995C04EB420301325980D4
:2017C000F1E703236370C8F80040012000E0002009B0BDE8F08F10B5002200F1C00454F852
:2017E000043F2BB10132042AF9D14FF0FF3010BD00EB8200C0F8C410184610BD30B54C7897
:20180000092C07D8044D55F824401CB1A446BDE830406047002030BD9424000830B54C78C9
:201820000B2C07D8044D55F824401CB1A446BDE830406047002030BDBC24000810B54C789F
:20184000012C03D00AD3032C04D00CE04C8854B9064C04E04C8834B9054C00E0054CA44678
:20186000BDE810406047002010BD00BFFB140008EB140008C114000810B50C7814F0600F69
:2018800012D104F01F04012C0AD005D3022C0BD1BDE81040FFF7D2BFBDE81040FFF7AEBF91
:2018A000BDE81040FFF7BABF002010BD10B5002104460122FFF7CDFD002384F82C3010BDFC
:2018C00038B50368828FC58EDB79AD1A9D42A8BF1D46836BADB21A4400212B460446FFF70B
:2018E000B0FDA84205D02046FFF7E0FF4FF0FF3038BDA38F0344A38738BD38B50368826B01
:20190000DD79838F9D4204464FF000010FD22B46FFF78FFD0223226884F82C30D379A16B43
:201920000B44A363D279A38F9B1AA38738BDFFF780FD032384F82C300023A387A36338BD48
:201940002DE9F34104460E4600F1440500F164082F6857B92046314604F1380204F13C0321
:2019600002B0BDE8F041FFF787BF697933782A790B409A420BD104F14003009320463146C8
:2019800004F1380204F13C03B847012803D908354545DDD1DEE702B0BDE8F08110B50369AD
:2019A00083638B79CA7943EA022383870446FFF7C7FF70B1A18F204619B1BDE81040FFF72C
:2019C0009CBF0B460A46FFF734FD042384F82C3010BD2046BDE81040FFF768BF70B5002655
:2019E00000EBC6056C6C2CB10136042EF8D14FF0FF3070BD85F8481085F849206B642046BF
:201A000070BD70B500F13006002505642946324608230446FFF715FD082804D02046BDE84C
:201A20007040FFF743BFE38E1BB194F93020002A05DA20463146BDE87040FFF7AFBFA28A19
:201A40009A42EBD32269A2632268A587D2799A4234BF0523062384F82C3070BD90F82C3052
:201A6000062B10B5044610D0072B24D0052B33D1FFF726FF002833DBA28FE38E9B1A2268BA
:201A8000D27993422CDC062310E0FFF719FF002826DB204604F13001FFF752FF48B10021E1
:201AA0000B4620460A46FFF7C4FC042384F82C3010BD204610E000210B460A46FFF7C1FCD2
:201AC000002384F82C30236C1BB1204604F1300198470023236410BDBDE81040FFF7E6BE3F
:201AE00010BD90F82C30032B10B5044607D0042B07D0022B1CD1BDE81040FFF7FEBE072330
:201B000013E0036C13B100F13001984794F8303053B994F83130052B06D1D4F8D430618EF3
:201B20005B682046C9B29847002384F82C3010BDBDE81040FFF7BABE1E4B02221A601E4A88
:201B4000136843F080031360D36A43F41023D3621A4B1A68002AFBDA1A6842F001021A60EE
:201B60001A6812F00102FBD1134915480B6843F0804343F470530B60D1F8F43743F003035E
:201B8000C1F8F4370F4B1A600F4A80231360A0F8D83052F81C3C43F0010342F81C3C0B4BBD
:201BA0000B4A1A600F22C3F804280122C3F8F827704700BF140000500C00005010000050AB
:201BC0000C070020000E0050240000501800005018280480FEE770470022184918485318EA
:201BE000834204D2174BD35853500432F5E7164A934203D200221A600433F8E7134A144C8F
:201C0000136843F470031360124B9C4203D254F8043B9847F8E7104C104B9C4203D254F81D
:201C2000043B9847F8E7FFF779F80D4C0D4B9C4203D254F8043B9847F8E700BF00000020B4
:201C400060000020202500081008002088ED00E020250008202500082025000820250008F6
:201C60002025000820250008024B20F07F401860704700BF14E000E0044A136800F004002F
:201C800023F0040303431360704700BF10E000E0024A136843F002031360704710E000E032
:201CA000024A136823F002031360704710E000E0024A136843F001031360704710E000E053
:201CC000024A136823F001031360704710E000E0044B420903EB820300F01F00012282402B
:201CE0001A60704700E100E0044B420903EB820300F01F00012282401A60704780E100E07F
:201D000020B9064A136843F4804305E0012804D1024A136803F480431360704700700040E7
:201D2000D0F8D430DA6AD2F8003823F4FE6343EA0111C2F8001870472DE9F04711F07F057F
:201D4000089ED0F8D4E003F07F0441D13F2BDEF82C2002D9C2F8005909E01F2B01D9012130
:201D600003E00F2B8CBF02210321C2F80019DEF82C20A1B2C2F81019DEF82C40D4F8002952
:201D800042F00842C4F80029DEF82C2041F0005141F40021C0F8E010C2F8101BDEF82C1049
:201DA000D1F8002B42F00842C1F8002BBEF83210DEF82C209B0841EA03419162B0F8D81020
:201DC0000B449BB2A0F8D830A0F8DA30BDE8F08711F0800F4FEA824729B22CD0B0F8D8C060
:201DE000DEF82C204FEA930905F140084CEA094A42F828A0DEF82C20490102F51162A4B2F7
:201E0000CC44A0F8D8C0545001F51061DEF82C4047F0184242F4004251F804E01A4342EA76
:201E200085524EEA02020A5136B30C2303FB05004666BDE8F08705F1380244F4002440F88D
:201E40002240DEF82C20490102F53162545001F53061DEF82C2047F0144451F802E044F4EB
:201E6000004423434EEA03038B502EB10C2303FB05008666BDE8F087BDE8F087B0F8DA30B8
:201E8000A0F8D830704710B5D0F8D43051B9DC6AD4F8000912B140F4001001E020F4001029
:201EA000C4F80009080646BF01F07F0148315831490122B1DA6A8B5843F4001308E0D86A1F
:201EC0000A5822F400120A50DA6A8B5843F080538B5010BD11F0800FD0F8D4301ABF01F023
:201EE0007F01483158314901DB6AC858C0F3405070470B0611D44318583183F8DC2049011C
:201F0000D0F8D43022B1DA6A8B5843F0006303E0DA6A8B5843F080638B50704770B5D0F8C6
:201F2000D450E86A01F07F014C0100F51160065936031AD443F40026065104F51064EE6A08
:201F4000A05940F00440A051E86A013100EB013110461C1A14448D1A002C054403DD50F85A
:201F6000044B2C60F5E7184670BD002070BDF7B50C46B0F8F0108B4228BF0B461E46C91AE0
:201F8000D0F8D430A0F8F010DB6A1746621C054603EB023338463246D91B032A014404DD12
:201FA000096840F8041B043AF6E72AB10B6802A941F8043D00F0AEF8D5F8D410CB6A04F15A
:201FC0003800620103F5316355F8200098502C4402F5306294F8DC00C96A0028535814BF4B
:201FE0004FF008404FF0044003433046535003B0F0BDD0F8D420F8B5D36A5E69B5040446A8
:2020000009D54FF400515961538EA0F8D830BDE8F840FFF7F5B9F00631D51B6A03F4B01258
:20202000B2F5802F67D103F4F012B2F5402F03F00F05C3F30A13A4F8F0300CBF022201225B
:202040004FF47A7300BF013BFCD105EB4503134404EB83035B6E13B120462946984701350D
:20206000B4F8F0202D030023934205DAD4F8D410C96A04336958F7E70023A4F8F0300025E0
:20208000D4F8D430DB6A6F0103F60813DB59D9070ED50C2303FB05435B6E13B12046E9B2AD
:2020A0009847D4F8D430DB6A03F608130122DA510135042DE4D1320508D5236A03B198477A
:2020C000D4F8D430DB6A4FF400625A61002E08DA636A03B19847D4F8D430DB6A4FF0004285
:2020E0005A61330707D5A36A03B19847D4F8D430DB6A08225A61F8BDD0F8D430DA6AD2F8E6
:20210000043811B143F0020301E023F00203C2F804387047844641EA000313F003036DD1A4
:20212000403A41D351F8043B40F8043B51F8043B40F8043B51F8043B40F8043B51F8043B8C
:2021400040F8043B51F8043B40F8043B51F8043B40F8043B51F8043B40F8043B51F8043B83
:2021600040F8043B51F8043B40F8043B51F8043B40F8043B51F8043B40F8043B51F8043B63
:2021800040F8043B51F8043B40F8043B51F8043B40F8043B51F8043B40F8043B51F8043B43
:2021A00040F8043B403ABDD2303211D351F8043B40F8043B51F8043B40F8043B51F8043BD3
:2021C00040F8043B51F8043B40F8043B103AEDD20C3205D351F8043B40F8043B043AF9D262
:2021E000043208D0D2071CBF11F8013B00F8013B01D30B8803806046704700BF082A13D386
:202200008B078DD010F003038AD0C3F10403D21ADB071CBF11F8013B00F8013B80D331F816
:20222000023B20F8023B7BE7043AD9D3013A11F8013B00F8013BF9D20B7803704B784370D5
:202240008B7883706046704720F0030110F00300C0F1000051F8043B00F1040C4FEACC0CC9
:202260006FF000021CBF22FA0CF213434FF0010C4CEA0C2C4CEA0C4CA3EB0C0222EA0302BD
:2022800012EACC1204BF51F8043B0430F4D0C2F1000102EA0102B2FA82F2C2F11F0200EB9F
:2022A000D200704705000000121012131211000000C201000000081201000202000040AC58
:2022C0002612000101010203010902000002010080FAD82200080000010000000000000032
:2022E000052300080100000000000000F022000809040100020A0000002D23000800000021
:2023000000000000000904000001020201004B2300081A230008130000000524001001059D
:2023200024010001042402000524060001070501024000010000000000000000070582023D
:202340004000010000000000000000070583031000FF0000000000000000334420526F62E1
:202360006F746963730050583420424C20464D552076342E780030000100000000400000C8
:202380000200000000400000030000000040000004000000000001000500000000000200AC
:2023A0000600000000000200070000000000020008000000000002000900000000000200F7
:2023C0000A000000000002000B000000000002001000000000400000110000000040000043
:2023E00012000000004000001300000000400000140000000000010015000000000002000C
:20240000160000000000020017000000000002001800000000000200190000000000020056
:202420001A000000000002001B000000000002001800C00002040000050600000005040071
:2024400000366E01006CDC02012033000010410001105A00031059000710310053544D33A2
:2024600032463F3F3F0053544D3332463430780053544D3332463432780053544D33324690
:2024800034343658580053544D333246343131780000000091140008000000000000000094
:2024A00000000000000000000B15000873150008000000006314000835150008A9140008CE
:2024C0000000000000000000000000000000000000000000000000000000000000000000FC
:2024E000000000008514000877140008391B0008211D0008391D00087D1E0008871E000858
:20250000F31E0008D51E00081D1F00086F1F0008F31F0008F92000080000005001008000C1
:202520005A2300086623000876230008000000005C2400083F000000130400006624000874
:202540003F00000019040000702400083F000000210400007A2400083F0000003104000005
:20256000862400083F0000000B0000000000000000000000600000000024F4000024F400CF
:20258000FFFFFFFFFFFFFFFFFFFFFFFFFFFFFFFFFFFFFFFFFFFFFFFFFFFFFFFFFFFFFFFF5B
:2025A000FFFFFFFFFFFFFFFFFFFFFFFFFFFFFFFFFFFFFFFFFFFFFFFFFFFFFFFFFFFFFFFF3B
:2025C000FFFFFFFFFFFFFFFFFFFFFFFFFFFFFFFFFFFFFFFFFFFFFFFFFFFFFFFFFFFFFFFF1B
:2025E000FFFFFFFFFFFFFFFFFFFFFFFFFFFFFFFFFFFFFFFFFFFFFFFFFFFFFFFFFFFFFFFFFB
:20400000A0CF0020B1B40508A1B70508A1B70508A1B70508A1B70508A1B70508A1B7050841
:20402000A1B70508A1B70508A1B70508A1B70508A1B70508A1B70508A1B70508A1B7050858
:20404000A1B70508A1B70508A1B70508A1B70508A1B70508A1B70508A1B70508A1B7050838
:20406000A1B70508A1B70508A1B70508A1B70508A1B70508A1B70508A1B70508A1B7050818
:20408000A1B70508A1B70508A1B70508A1B70508A1B70508A1B70508A1B70508A1B70508F8
:2040A000A1B70508A1B70508A1B70508A1B70508A1B70508A1B70508A1B70508A1B70508D8
:2040C000A1B70508A1B70508A1B70508A1B70508A1B70508A1B70508A1B70508A1B70508B8
:2040E000A1B70508A1B70508A1B70508A1B70508A1B70508A1B70508A1B70508A1B7050898
:20410000A1B70508A1B70508A1B70508A1B70508A1B70508A1B70508A1B70508A1B7050877
:20412000A1B70508A1B70508A1B70508A1B70508A1B70508A1B70508A1B70508A1B7050857
:20414000A1B70508A1B70508A1B70508A1B70508A1B70508A1B70508A1B70508A1B7050837
:20416000A1B70508A1B70508A1B70508A1B70508A1B70508A1B70508A1B70508A1B7050817
:20418000A1B70508A1B7050800000000000000004E4F54453A20323031382F382F323920D9
:2041A00031303A33383A3038204672616D65203A200D0A414343454C5F5A5F442C302E304D
:2041C000320D0A414343454C5F5A5F46494C542C320D0A414343454C5F5A5F492C302E310E
:2041E000350D0A414343454C5F5A5F494D41582C3830300D0A414343454C5F5A5F502C30DD
:204200002E340D0A4143524F5F42414C5F50495443482C310D0A4143524F5F42414C5F5283
:204220004F4C4C2C310D0A4143524F5F4558504F2C302E330D0A4143524F5F52505F502C8E
:20424000342E350D0A4143524F5F545241494E45522C320D0A4143524F5F5941575F502C52
:20426000312E310D0A414852535F434F4D505F424554412C302E310D0A414852535F454B71
:20428000465F545950452C320D0A414852535F4750535F4741494E2C310D0A414852535FCC
:2042A0004750535F4D494E534154532C370D0A414852535F4750535F5553452C310D0A41A4
:2042C0004852535F4F5249454E544154494F4E2C300D0A414852535F52505F502C302E3239
:2042E0000D0A3B414852535F5452494D5F582C300D0A3B414852535F5452494D5F592C3061
:204300000D0A414852535F5452494D5F5A2C300D0A414852535F57494E445F4D41582C3031
:204320000D0A414852535F5941575F502C302E320D0A414E474C455F4D41582C31373030C6
:204340000D0A41524D494E475F434845434B2C3132370D0A4154435F414343454C5F505F51
:204360004D41582C3130383030300D0A4154435F414343454C5F525F4D41582C3130383071
:2043800030300D0A4154435F414343454C5F595F4D41582C33363030300D0A4154435F4166
:2043A0004E475F4C494D5F54432C310D0A4154435F414E475F5049545F502C31320D0A41CE
:2043C00054435F414E475F524C4C5F502C372E350D0A4154435F414E475F5941575F502C04
:2043E000370D0A4154435F414E474C455F424F4F53542C310D0A4154435F5241545F504961
:20440000545F442C302E303034350D0A4154435F5241545F5049545F46494C542C34300DA6
:204420000A4154435F5241545F5049545F492C302E31360D0A4154435F5241545F504954EE
:204440005F494D41582C302E3434340D0A4154435F5241545F5049545F502C302E310D0AA6
:204460004154435F5241545F524C4C5F442C302E3030340D0A4154435F5241545F524C4C96
:204480005F46494C542C34300D0A4154435F5241545F524C4C5F492C302E31350D0A41543C
:2044A000435F5241545F524C4C5F494D41582C302E3434340D0A4154435F5241545F524C44
:2044C0004C5F502C302E30380D0A4154435F5241545F5941575F442C302E3030370D0A414E
:2044E00054435F5241545F5941575F46494C542C380D0A4154435F5241545F5941575F4970
:204500002C302E30310D0A4154435F5241545F5941575F494D41582C302E3232320D0A4125
:2045200054435F5241545F5941575F502C302E34310D0A4154435F524154455F46465F45A7
:204540004E41422C310D0A4154435F534C45575F5941572C363030300D0A4154435F544878
:20456000525F4D49585F4D41582C302E350D0A4154435F5448525F4D49585F4D494E2C3070
:204580002E310D0A4155544F54554E455F414747522C302E310D0A4155544F54554E455F0A
:2045A000415845532C370D0A4155544F54554E455F4D494E5F442C302E3030310D0A41562C
:2045C0004F49445F454E41424C452C310D0A424154545F414D505F4F46465345542C300D8E
:2045E0000A424154545F414D505F504552564F4C542C31370D0A424154545F434150414331
:204600004954592C323832300D0A424154545F435552525F50494E2C330D0A424154545F89
:204620004D4F4E49544F522C330D0A424154545F564F4C545F4D554C542C372E363239300A
:2046400033370D0A424154545F564F4C545F50494E2C300D0A42415454325F414D505F4F09
:2046600046465345542C300D0A42415454325F414D505F504552564F4C2C31370D0A424150
:204680005454325F43415041434954592C333330300D0A42415454325F435552525F50499A
:2046A0004E2C330D0A42415454325F4D4F4E49544F522C300D0A42415454325F564F4C54DE
:2046C0005F4D554C542C31302E310D0A42415454325F564F4C545F50494E2C320D0A4252E6
:2046E000445F43414E5F454E41424C452C300D0A4252445F494D555F5441524754454D50E7
:204700002C2D310D0A4252445F50574D5F434F554E542C360D0A4252445F53414645545969
:204720005F4D41534B2C300D0A4252445F534146455459454E41424C452C310D0A42524485
:204740005F534255535F4F55542C300D0A4252445F534552315F5254534354532C300D0AEC
:204760004252445F534552325F5254534354532C300D0A4252445F53455249414C5F4E5538
:204780004D2C300D0A4252445F545950452C340D0A434831305F4F50542C300D0A434831FC
:2047A000315F4F50542C300D0A434831325F4F50542C300D0A4348375F4F50542C300D0AC9
:2047C0004348385F4F50542C300D0A4348395F4F50542C300D0A4349525F4143432C320D59
:2047E0000A434952434C455F5241444955532C300D0A434952434C455F524154452C323098
:204800000D0A434C495F454E41424C45442C300D0A434F4D504153535F4155544F44454372
:204820002C310D0A434F4D504153535F43414C5F4649542C380D0A434F4D504153535F4449
:2048400045432C300D0A434F4D504153535F4445565F49442C3339363830390D0A434F4DB8
:20486000504153535F4445565F4944322C300D0A3B434F4D504153535F4449415F582C30A1
:204880000D0A3B434F4D504153535F4449415F592C300D0A3B434F4D504153535F444941DA
:2048A0005F5A2C300D0A434F4D504153535F444941325F582C310D0A434F4D504153535FB7
:2048C000444941325F592C310D0A434F4D504153535F444941325F5A2C310D0A434F4D50DB
:2048E0004153535F45585445524E322C300D0A434F4D504153535F45585445524E414C2CF3
:20490000310D0A434F4D504153535F4C4541524E2C300D0A434F4D504153535F4D4F545F31
:20492000582C300D0A434F4D504153535F4D4F545F592C300D0A434F4D504153535F4D4F0B
:20494000545F5A2C300D0A434F4D504153535F4D4F54325F582C300D0A434F4D5041535300
:204960005F4D4F54325F592C300D0A434F4D504153535F4D4F54325F5A2C300D0A434F4DE9
:20498000504153535F4D4F5443542C310D0A3B434F4D504153535F4F44495F582C300D0AD0
:2049A0003B434F4D504153535F4F44495F592C300D0A3B434F4D504153535F4F44495F5AFB
:2049C0002C300D0A434F4D504153535F4F4449325F582C300D0A434F4D504153535F4F44AF
:2049E00049325F592C300D0A434F4D504153535F4F4449325F5A2C300D0A3B434F4D5041B7
:204A000053535F4F46535F582C300D0A3B434F4D504153535F4F46535F592C300D0A3B433E
:204A20004F4D504153535F4F46535F5A2C300D0A434F4D504153535F4F4653325F582C308E
:204A40000D0A434F4D504153535F4F4653325F592C300D0A434F4D504153535F4F465332F6
:204A60005F5A2C300D0A434F4D504153535F4F5249454E542C360D0A434F4D504153535FD6
:204A80004F5249454E54322C300D0A434F4D504153535F5052494D4152592C300D0A434F02
:204AA0004D504153535F5553452C310D0A434F4D504153535F555345322C300D0A444556CC
:204AC0005F4F5054494F4E532C300D0A44495341524D5F44454C41592C310D0A454B325FB5
:204AE00041424941535F505F4E53452C302E3030350D0A454B325F4143435F505F4E534550
:204B00002C302E360D0A454B325F414C545F4D5F4E53452C330D0A454B325F414C545F53A1
:204B20004F555243452C300D0A454B325F434845434B5F5343414C452C3137300D0A454BD3
:204B4000325F4541535F495F474154452C3430300D0A454B325F4541535F4D5F4E53452CD5
:204B6000312E340D0A454B325F454E41424C452C310D0A454B325F464C4F575F44454C4181
:204B8000592C31300D0A454B325F464C4F575F495F474154452C3330300D0A454B325F465A
:204BA0004C4F575F4D5F4E53452C302E32350D0A454B325F47424941535F505F4E53452C63
:204BC000302E303030310D0A454B325F474C495443485F5241442C32350D0A454B325F477B
:204BE00050535F434845434B2C2D33330D0A454B325F4750535F44454C41592C3235300DD6
:204C00000A454B325F4750535F545950452C300D0A454B325F4753434C5F505F4E53452C01
:204C2000302E303030350D0A454B325F4759524F5F505F4E53452C302E30330D0A454B321E
:204C40005F4847545F44454C41592C36300D0A454B325F4847545F495F474154452C3530DE
:204C6000300D0A454B325F494D555F4D41534B2C310D0A454B325F4C4F475F4D41534B2C28
:204C8000310D0A454B325F4D41475F43414C2C330D0A454B325F4D41475F495F4741544513
:204CA0002C3530300D0A454B325F4D41475F4D5F4E53452C302E30350D0A454B325F4D4180
:204CC00047425F505F4E53452C302E303030310D0A454B325F4D4147455F505F4E53452C9A
:204CE000302E3030310D0A454B325F4D41585F464C4F572C322E350D0A454B325F4E4F4139
:204D000049445F4D5F4E53452C310D0A454B325F504F535F495F474154452C3530300D0A8E
:204D2000454B325F504F534E455F4D5F4E53452C310D0A454B325F524E475F495F4741547D
:204D4000452C3530300D0A454B325F524E475F4D5F4E53452C302E350D0A454B325F524EA6
:204D6000475F5553455F4847542C2D310D0A454B325F5441555F4F55545055542C32350DC2
:204D80000A454B325F544552525F475241442C302E310D0A454B325F56454C5F495F4741C5
:204DA00054452C3530300D0A454B325F56454C445F4D5F4E53452C302E370D0A454B325F4C
:204DC00056454C4E455F4D5F4E53452C302E350D0A454B325F57494E445F505F4E53452C1F
:204DE000302E310D0A454B325F57494E445F505343414C452C302E350D0A454B325F594112
:204E0000575F495F474154452C3330300D0A454B325F5941575F4D5F4E53452C302E350D6E
:204E20000A4553435F43414C4942524154494F4E2C300D0A46454E43455F414354494F4E15
:204E40002C310D0A46454E43455F414C545F4D41582C3130300D0A46454E43455F454E4190
:204E6000424C452C300D0A46454E43455F4D415247494E2C320D0A46454E43455F52414462
:204E80004955532C3330300D0A46454E43455F544F54414C2C300D0A46454E43455F545927
:204EA00050452C370D0A464C544D4F4445312C300D0A464C544D4F4445322C320D0A464CF0
:204EC000544D4F4445332C350D0A464C544D4F4445342C370D0A464C544D4F4445352C3950
:204EE0000D0A464C544D4F4445362C360D0A4652414D452C310D0A46535F424154545F453B
:204F00004E41424C452C320D0A46535F424154545F4D41482C300D0A46535F424154545F6D
:204F2000564F4C544147452C31302E360D0A46535F43524153485F434845434B2C310D0ABD
:204F400046535F454B465F414354494F4E2C310D0A46535F454B465F5448524553482C309B
:204F60002E39350D0A46535F4743535F454E41424C452C310D0A46535F5448525F454E4116
:204F8000424C452C310D0A46535F5448525F56414C55452C313038300D0A4743535F504927
:204FA000445F4D41534B2C300D0A474E445F4142535F50524553532C39393136380D0A471A
:204FC0004E445F414C545F4F46465345542C300D0A474E445F4546464543545F434F4D50F3
:204FE0002C300D0A474E445F5052494D4152592C300D0A474E445F54454D502C32350D0A57
:205000004750535F4155544F5F434F4E4649472C310D0A4750535F4155544F5F535749545D
:2050200043482C310D0A4750535F474E53535F4D4F44452C300D0A4750535F474E53535F13
:205040004D4F4445322C300D0A4750535F48444F505F474F4F442C3232300D0A4750535F6A
:20506000494E4A4543545F544F2C3132370D0A4750535F4D494E5F444750532C3130300D10
:205080000A4750535F4D494E5F454C45562C2D3130300D0A4750535F4E415646494C5445AB
:2050A000522C380D0A4750535F504F53315F582C300D0A4750535F504F53315F592C300D00
:2050C0000A4750535F504F53315F5A2C300D0A4750535F504F53325F582C300D0A475053AD
:2050E0005F504F53325F592C300D0A4750535F504F53325F5A2C300D0A4750535F52415439
:20510000455F4D532C3230300D0A4750535F524154455F4D53322C3230300D0A4750535FB2
:205120005241575F444154412C300D0A4750535F534156455F4346472C300D0A4750535F36
:20514000534241535F4D4F44452C320D0A4750535F5342505F4C4F474D41534B2C2D3235D2
:20516000360D0A4750535F545950452C310D0A4750535F54595045322C300D0A494E415685
:205180005F54435F58592C322E350D0A494E41565F54435F5A2C380D0A494E535F414343C9
:2051A0005F424F44594649582C320D0A494E535F414343324F4646535F582C300D0A494ED5
:2051C000535F414343324F4646535F592C300D0A494E535F414343324F4646535F5A2C3046
:2051E0000D0A494E535F414343325343414C5F582C300D0A494E535F414343325343414CA4
:205200005F592C300D0A494E535F414343325343414C5F5A2C300D0A494E535F414343457D
:205220004C5F46494C5445522C32300D0A3B494E535F4143434F4646535F582C300D0A3B7A
:20524000494E535F4143434F4646535F592C300D0A3B494E535F4143434F4646535F5A2C87
:20526000300D0A3B494E535F4143435343414C5F582C300D0A3B494E535F4143435343412D
:205280004C5F592C300D0A3B494E535F4143435343414C5F5A2C300D0A494E535F475952C2
:2052A0005F43414C2C310D0A494E535F475952324F4646535F582C300D0A494E535F47599D
:2052C00052324F4646535F592C300D0A494E535F475952324F4646535F5A2C300D0A494E93
:2052E000535F4759524F5F46494C5445522C32300D0A3B494E535F4759524F4646535F5896
:205300002C300D0A3B494E535F4759524F4646535F592C300D0A3B494E535F4759524F4640
:2053200046535F5A2C300D0A494E535F504F53315F582C300D0A494E535F504F53315F59EE
:205340002C300D0A494E535F504F53315F5A2C300D0A494E535F504F53325F582C300D0AAB
:20536000494E535F504F53325F592C300D0A494E535F504F53325F5A2C300D0A494E535FB3
:2053800050524F445543545F49442C360D0A494E535F5354494C4C5F5448524553482C322B
:2053A0002E350D0A494E535F5452494D5F4F5054494F4E2C310D0A494E535F5553452C31AF
:2053C0000D0A494E535F555345322C310D0A4C414E445F5245504F534954494F4E2C310DE6
:2053E0000A4C414E445F53504545442C3135300D0A4C414E445F53504545445F484947486D
:205400002C3135300D0A4C47525F534552564F5F4445504C4F592C313735300D0A4C4752BF
:205420005F534552564F5F5254524143542C313235300D0A4C4F475F4249544D41534B2CCC
:205440003137363132360D0A4C4F575F4C414E445F53504545442C36300D0A4D41475F459C
:205460004E41424C452C310D0A4D49535F524553544152542C300D0A4D49535F544F5441F6
:205480004C2C300D0A4D4F545F4241545F435552525F4D41582C300D0A4D4F545F424154AE
:2054A0005F435552525F54432C350D0A4D4F545F4241545F564F4C545F4D41582C31320D38
:2054C0000A4D4F545F4241545F564F4C545F4D494E2C31302E340D0A4D4F545F484F56452E
:2054E000525F4C4541524E2C300D0A4D4F545F50574D5F4D41582C313930300D0A4D4F5491
:205500005F50574D5F4D494E2C313130300D0A4D4F545F50574D5F545950452C300D0A4D4C
:205520004F545F5350494E5F41524D2C302E310D0A4D4F545F5350494E5F4D41582C302EC6
:2055400039350D0A4D4F545F5350494E5F4D494E2C302E31350D0A4D4F545F544853545F02
:205560004558504F2C302E36350D0A4D4F545F544853545F484F5645522C302E320D0A4D4E
:205580004F545F5941575F48454144524F4F4D2C3230300D0A4F465F5049545F442C300DA8
:2055A0000A4F465F5049545F46494C542C350D0A4F465F5049545F492C302E360D0A4F4605
:2055C0005F5049545F494D41582C35300D0A4F465F5049545F502C31302E350D0A4F465FBE
:2055E000524C4C5F442C302E30340D0A4F465F524C4C5F46494C542C320D0A4F465F524CA6
:205600004C5F492C302E370D0A4F465F524C4C5F494D41582C35300D0A4F465F524C4C5F6D
:20562000502C32330D0A505F5A5F50495F442C300D0A505F5A5F50495F46494C542C350D5E
:205640000A505F5A5F50495F492C302E350D0A505F5A5F50495F494D41582C3430300D0A5B
:20566000505F5A5F50495F502C310D0A50484C445F4252414B455F414E474C452C31373090
:20568000300D0A50484C445F4252414B455F524154452C380D0A50494C4F545F41434345DE
:2056A0004C5F5A2C3235300D0A50494C4F545F5448525F4248562C300D0A50494C4F545F9D
:2056C0005448525F46494C542C300D0A50494C4F545F544B4F46465F414C542C300D0A5077
:2056E000494C4F545F544B4F46465F445A2C3130300D0A50494C4F545F56454C5A5F4D41B3
:20570000582C3235300D0A504C4E445F454E41424C45442C300D0A504F535F58595F502C8F
:20572000310D0A5053435F4143435F58595F46494C542C320D0A5053435F59595A5F447797
:205740005F535045442C2D3135300D0A5053435F59595A5F55505F535045442C3230300D0D
:205760000A5053435F59595A5F58595F424B452C313730300D0A5053435F59595A5F5A5F19
:205780006163632C302E370D0A52414C4C595F494E434C5F484F4D452C310D0A52414C4CDA
:2057A000595F4C494D49545F4B4D2C302E330D0A52414C4C595F544F54414C2C300D0A52BB
:2057C000435F4645454C5F52502C35300D0A52435F465245512C310D0A52435F4944312CEE
:2057E000312E30330D0A52435F4944322C310D0A52435F53504545442C3439300D0A5243CF
:20580000315F445A2C35300D0A5243315F4D41582C313930300D0A5243315F4D494E2C3134
:205820003130300D0A5243315F5245562C310D0A5243315F5452494D2C313530300D0A527E
:205840004331305F445A2C300D0A524331305F46554E4354494F4E2C300D0A524331305FB1
:205860004D41582C313930300D0A524331305F4D494E2C313130300D0A524331305F52450B
:20588000562C310D0A524331305F5452494D2C313530300D0A524331315F445A2C300D0A3D
:2058A000524331315F46554E4354494F4E2C300D0A524331315F4D41582C313930300D0A70
:2058C000524331315F4D494E2C313130300D0A524331315F5245562C310D0A524331315F7C
:2058E0005452494D2C313530300D0A524331325F445A2C300D0A524331325F46554E435424
:20590000494F4E2C300D0A524331325F4D41582C313930300D0A524331325F4D494E2C314C
:205920003130300D0A524331325F5245562C310D0A524331325F5452494D2C313530300D75
:205940000A524331335F445A2C300D0A524331335F46554E4354494F4E2C300D0A524331DD
:20596000335F4D41582C313930300D0A524331335F4D494E2C313130300D0A524331335F09
:205980005245562C310D0A524331335F5452494D2C313530300D0A524331345F445A2C30B6
:2059A0000D0A524331345F46554E4354494F4E2C300D0A524331345F4D41582C3139303069
:2059C0000D0A524331345F4D494E2C313130300D0A524331345F5245562C310D0A524331EE
:2059E000345F5452494D2C313530300D0A5243325F445A2C35300D0A5243325F4D41582C2B
:205A0000313930300D0A5243325F4D494E2C313130300D0A5243325F5245562C310D0A52BD
:205A200043325F5452494D2C313530300D0A5243335F445A2C33300D0A5243335F4D4158D5
:205A40002C313930300D0A5243335F4D494E2C313130300D0A5243335F5245562C310D0AA1
:205A60005243335F5452494D2C313530300D0A5243345F445A2C35300D0A5243345F4D4196
:205A8000582C313930300D0A5243345F4D494E2C313130300D0A5243345F5245562C310D11
:205AA0000A5243345F5452494D2C313530300D0A5243355F445A2C300D0A5243355F465571
:205AC0004E4354494F4E2C300D0A5243355F4D41582C313930300D0A5243355F4D494E2C33
:205AE000313130300D0A5243355F5245562C310D0A5243355F5452494D2C313530300D0AD5
:205B00005243365F445A2C300D0A5243365F46554E4354494F4E2C300D0A5243365F4D418F
:205B2000582C313930300D0A5243365F4D494E2C313130300D0A5243365F5245562C310D6C
:205B40000A5243365F5452494D2C313530300D0A5243375F445A2C300D0A5243375F4655CA
:205B60004E4354494F4E2C300D0A5243375F4D41582C313930300D0A5243375F4D494E2C8E
:205B8000313130300D0A5243375F5245562C310D0A5243375F5452494D2C313530300D0A30
:205BA0005243385F445A2C300D0A5243385F46554E4354494F4E2C300D0A5243385F4D41E9
:205BC000582C313930300D0A5243385F4D494E2C313130300D0A5243385F5245562C310DC8
:205BE0000A5243385F5452494D2C313530300D0A5243395F445A2C300D0A5243395F465524
:205C00004E4354494F4E2C300D0A5243395F4D41582C313930300D0A5243395F4D494E2CE9
:205C2000313130300D0A5243395F5245562C310D0A5243395F5452494D2C313530300D0A8B
:205C400052434D41505F50495443482C320D0A52434D41505F524F4C4C2C310D0A52434D24
:205C600041505F5448524F54544C452C330D0A52434D41505F5941572C340D0A524E4746E1
:205C80004E445F4741494E2C302E380D0A52544C5F414C542C323030300D0A52544C5F4152
:205CA0004C545F46494E414C2C300D0A52544C5F434C494D425F4D494E2C300D0A52544CA8
:205CC0005F434F4E455F534C4F50452C330D0A52544C5F4C4F49545F54494D452C32303013
:205CE000300D0A52544C5F53504545442C300D0A53434845445F44454255472C300D0A5335
:205D0000434845445F4C4F4F505F524154452C3430300D0A53455249414C305F4241554409
:205D20002C3131350D0A53455249414C305F50524F544F434F4C2C310D0A53455249414C94
:205D4000315F424155442C3131350D0A53455249414C315F50524F544F434F4C2C300D0A88
:205D600053455249414C325F424155442C35370D0A53455249414C325F50524F544F434F90
:205D80004C2C350D0A53455249414C335F424155442C33380D0A53455249414C335F50522F
:205DA0004F544F434F4C2C300D0A53455249414C345F424155442C33380D0A53455249410F
:205DC0004C345F50524F544F434F4C2C300D0A53455249414C355F424155442C35370D0AE0
:205DE00053455249414C355F50524F544F434F4C2C310D0A53494D504C452C300D0A535287
:205E0000305F414453422C350D0A5352305F4558545F535441542C320D0A5352305F45585B
:205E2000545241312C340D0A5352305F4558545241322C340D0A5352305F45585452413387
:205E40002C320D0A5352305F504152414D532C31300D0A5352305F504F534954494F4E2C5C
:205E6000320D0A5352305F5241575F4354524C2C300D0A5352305F5241575F53454E532CD2
:205E8000320D0A5352305F52435F4348414E2C320D0A5352315F414453422C350D0A535296
:205EA000315F4558545F535441542C300D0A5352315F4558545241312C320D0A5352315FBF
:205EC0004558545241322C300D0A5352315F4558545241332C300D0A5352315F50415241E1
:205EE0004D532C31300D0A5352315F504F534954494F4E2C300D0A5352315F5241575F4380
:205F000054524C2C300D0A5352315F5241575F53454E532C320D0A5352315F52435F43483C
:205F2000414E2C340D0A5352325F414453422C350D0A5352325F4558545F535441542C3075
:205F40000D0A5352325F4558545241312C300D0A5352325F4558545241322C300D0A5352C8
:205F6000325F4558545241332C300D0A5352325F504152414D532C300D0A5352325F504F24
:205F8000534954494F4E2C300D0A5352325F5241575F4354524C2C300D0A5352325F5241C8
:205FA000575F53454E532C300D0A5352325F52435F4348414E2C300D0A5352335F414453B9
:205FC000422C350D0A5352335F4558545F535441542C300D0A5352335F4558545241312CB9
:205FE000300D0A5352335F4558545241322C300D0A5352335F4558545241332C300D0A5346
:2060000052335F504152414D532C300D0A5352335F504F534954494F4E2C300D0A5352336E
:206020005F5241575F4354524C2C300D0A5352335F5241575F53454E532C300D0A5352330C
:206040005F52435F4348414E2C300D0A53555045525F53494D504C452C300D0A53595349ED
:20606000445F4D594743532C3235350D0A53595349445F53575F4D5245562C3132300D0A17
:2060800053595349445F53575F545950452C31300D0A53595349445F544849534D41562CF3
:2060A0003235350D0A54454C454D5F44454C41592C300D0A5445525241494E5F464F4C4CD4
:2060C0004F572C300D0A5448525F445A2C3130300D0A5448524F575F4D4F545F535441526C
:2060E000542C300D0A5448524F575F4E4558544D4F44452C31380D0A5448524F575F545936
:2061000050452C300D0A54554E452C300D0A54554E455F484947482C313030300D0A545560
:206120004E455F4C4F572C300D0A54574F5F424154545F564F4C544147452C31302E330D18
:206140000A56454C5F505A5F442C302E30310D0A56454C5F505A5F46494C542C350D0A5654
:20616000454C5F505A5F492C302E350D0A56454C5F505A5F494D41582C3430300D0A564517
:206180004C5F505A5F502C350D0A56454C5F585F442C302E30350D0A56454C5F585F4649B0
:2061A0004C542C350D0A56454C5F585F492C312E350D0A56454C5F585F494D41582C3130F1
:2061C00030300D0A56454C5F585F502C312E350D0A56454C5F595F442C302E30350D0A5686
:2061E000454C5F595F46494C542C350D0A56454C5F595F492C312E350D0A56454C5F595F34
:20620000494D41582C313030300D0A56454C5F595F502C312E350D0A57505F4E4156414CAE
:20622000545F4D494E2C300D0A57505F5941575F4245484156494F522C330D0A57504E4102
:20624000565F414343454C2C3130300D0A57504E41565F414343454C5F5A2C3130300D0A8D
:2062600057504E41565F4C4F49545F4A45524B2C313030300D0A57504E41565F4C4F495449
:206280005F4D4158412C3235300D0A57504E41565F4C4F49545F4D494E412C31350D0A57F7
:2062A000504E41565F4C4F49545F53504545442C3530300D0A57504E41565F52414449550A
:2062C000532C3230300D0A57504E41565F52464E445F5553452C310D0A57504E41565F5383
:2062E000504545442C3730300D0A57504E41565F53504545445F444E2C3130300D0A5750DE
:206300004E41565F53504545445F55502C3132300D0A57504E41565F59595A5F424B455F67
:206320004B502C302E38350D0A0000BFAFF30080FFF7FEFF000000000000000000000000E0
:20634000FFECC2925D7D05C530B541F64F220023835400F5FC5541F65022103585B0835493
:206360000446284638F04EFE0023284601A901930293039338F0E7FE41F66833B4F9441017
:20638000E25842F317238B42B8BF0B4607EE903A04F50450F8EEE77A0830CDED037A3AF0D3
:2063A000F1FEC30726D504F50452D2ED076AD2ED057A9DED037A77EEE67ADFED176A67EEFE
:2063C000A67ADFED166A37EE676AB5EEC06AF1EE10FA08DBB4EEE66AF1EE10FA44BF37EEBF
:2063E000667A8DED037AB4EEE66AF1EE10FAA8BFCDED037A01A92846002239F0D1FE41F6E4
:2064000090722046A35C43F00203A354002106F0A4FD05B030BD00BF0000C8420000484338
:2064200038B504460D460DF09CFE00B91DB12046FFF78AFF012038BD10B541F64F23012228
:206440000446C25441F6502386B0002204F58151C2540C31002303A80093019302930FF033
:2064600001F8694603A80FF03BF941F66833B4F94410E25842F317238B42B8BF0B4607EE90
:20648000903A04F50450F8EEE77A0830CDED027A3AF078FEC30726D504F50452D2ED076A4C
:2064A000D2ED057A9DED027A77EEE67ADFED166A67EEA67ADFED156A37EE676AB5EEC06A04
:2064C000F1EE10FA08DBB4EEE66AF1EE10FA44BF37EE667A8DED027AB4EEE66AF1EE10FA3C
:2064E000A8BFCDED027A04F5FC5000226946103039F056FE2046012106F020FD01462046E4
:2065000006F02BFD06B010BD0000C8420000484370B500F5C7552DED048B10356B7900F548
:20652000E75613F0010F044606F10C0606D041F69002825C910601D59A060DD4012185F8AE
:206540002810BDEC048B3046D4ED0E0A9FED400ABDE8704033F066B841F6DC03C35C9B0739
:2065600073D4D4F8C434B3F9023000EE103AB8EEC00A01F07DFCB4F97A305A4200EE902A85
:2065800007EE903AF8EEE00AB8EEE71A19F088FDB0EE408A022304F5FC5085F82830103050
:2065A00039F052FF0146204605F0A4FF04F5F35504F5DC53B0EE480AD3ED070A2846002163
:2065C00031F030FC284632F095FA41F674332046E25C41F69C73E358D3ED1D8A93ED1E8ABD
:2065E000FDEEE88ABDEEC88AF8EEE88AB8EEC88A6AB901F005FB3046F0EE401AF0EE480AFF
:20660000B0EE680A9FED121A33F0A8FD12E006F097FD2046B0EE409A01F0F2FA3046F0EE5F
:20662000401AF0EE480AB0EE680AB0EE491A012133F0C0FE41F69073BDEC048BE35C41F6D4
:20664000502203F00103A35470BD9FED018AA1E70000000041F64F23022210B5C25441F62F
:2066600050230022C25404463EF0D7FE42F2FC030121E050204606F061FC0146204601B185
:206680000521BDE8104006F068BCFFECF8B500F5C7552DED048B10356B7900F5E75613F015
:2066A000010F044606F10C0606D041F69002825C920601D59B060DD4012185F82810BDEC8A
:2066C000048B3046D4ED0E0A9FED490ABDE8F84032F0A8BF41F6DC03C35C03F0020303F077
:2066E000FF07002B7DD1D4F8C834B3F9021001F00FFBDFED407AB0EEC07AB4EE677AF1EEDA
:2067000010FAB0EE409A03D42046394606F025FC022304F5FC5085F82830103039F094FEEA
:206720000146204605F0E6FE04F5F35032F0E2F941F674332046E25C41F69C73E358D3EDD7
:206740001D8A93ED1E8AFDEEE88ABDEEC88AF8EEE88AB8EEC88A6AB901F052FA3046F0EE0C
:20676000401AF0EE480AB0EE680AB0EE491A33F0F5FC12E006F0E4FC2046B0EE409A01F0D3
:206780003FFA3046F0EE401AF0EE480AB0EE680AB0EE491A012133F00DFE3EF03EFE42F2E3
:2067A000FC03E358C01A236F98421DD341F67433E35C052B10D141F69823D4F8500FE358E3
:2067C000C01A19F0AFFBBDEEC00A10EE103A002BB8BF5B42C82B07DC41F650230122E25457
:2067E00002E09FED039A93E7BDEC048BF8BD00BF000000000000003438B541F64F23032279
:20680000C25441F6502300250446C55400F5FC50103000F18001012238F026F904F5F35097
:2068200032F006F820462946BDE8384006F095BB2DE9F84300F5C7562DED048B10367379C2
:2068400000F5FC5700F5E75913F0010F044607F1100709F10C0906D041F69002825C90062D
:2068600001D5990610D4012186F828104846D4ED0E0A9FED570A32F0D5FEBDEC048B3846E8
:20688000BDE8F84338F016B941F6DC03E35C9B0700F19980A38F9A0717D504F5DB5037F016
:2068A0005DFADFED4C7A90ED007AB4EEE77AF1EE10FA0ADD20460521092201F0BAFE20B9EC
:2068C00020460221092201F0B4FE94F9AF5055B1204607F03BFFD4F8BC34B3F80280D4F883
:2068E000C0345D8800E0A846D4F8C8342046B3F9021001F00DFAB0EE409A022386F828309A
:206900000FFA88F300EE103A2BB200EE903A3846B8EEC00AF8EEE00A38F02CF904F59C5234
:2069200092ED010AD2ED020A384638F025FBB4F9663000EE103A04F5F35504F5DC53D3ED98
:20694000070AB8EEC00A284631F0E2F9284632F0D1F841F69C732046E358D3ED1D8A93ED25
:206960001E8AFDEEE88ABDEEC88A01F049F9F8EEE88AB8EEC88AF0EE401AF0EE480AB0EE8C
:20698000680AB0EE491A484633F0E8FB41F66832B4F96630A258A3EB222307EE903AF8EE6A
:2069A000E77ABDEC048BF0EEE77AB3EE047AF4EEC77AF1EE10FA41F650234CBF01220022DA
:2069C000E254BDE8F88300259FED019AA84694E70000000000002F4438B590F82130044629
:2069E00013B9012380F8213004F5C75310335979C80708D541F69005625D02F0A002202AA1
:206A000001D18A061BD4012183F8281004F5E7500C309FED130AD4ED0E0A32F003FE04F546
:206A2000FC50103038F046F841F690031D46E25C12F0800F0DD0204601F0FAFB09E0022232
:206A4000204683F828200DF0EBFC204600210DF063FE635D41F65022DB09A35438BD00BF4C
:206A600000000000F0B500F581520F46537B917B0C3243EA0123D27843EA024343F31703DF
:206A8000044600EE103A00F5DB5687B000F5D355083604F505513246B8EEC00A03A8143195
:206AA000093530F0C5FC03A928460EF0F3FC41F668332046E35843F31723019309F057FAEF
:206AC00041F68223002814BF3846002004F5D257E0541137B8B13846032102AA0EF02CFDC5
:206AE000002800F0DE802846032103AA0EF024FD002800F0D6803046032101AA0EF01CFDF8
:206B0000002800F0CE8041F68223E35C23B1284603210EF0D5FD68B9012128460EF0D0FD42
:206B2000014618B9284601220EF0CCFC41F682230022E25441F66A2341F66C22E35AA25CEE
:206B4000B4F9681043EA024343F31703C82BB4F94420B8BFC8239342B8BF1346019A28463A
:206B60000029A8BF521839469342ACBF039303920EF004FED4ED127AB6EE007AF4EEC77AA3
:206B8000F1EE10FA2CDB9FED497A019B67EE877AFA3327EE800A07EE903AF8EEE77AB4EE50
:206BA000E70AF1EE10FAD8BFB0EE670ADDED037AB8EEE77ADDED017AB4EEC07AF1EE10FAFD
:206BC000F8EEE77A58BFB0EE407AF4EEC77AF1EE10FAD8BFF0EE477AFDEEE77ACDED037A3A
:206BE00041F682232846E35C0399002B14BF032201220EF067FC04F5045008303AF0C2FA5E
:206C000004F5D35610F0010F06F10A0635D02846012103AA0EF090FC78B304F5045213469C
:206C2000D3ED076AD2ED057A77EEE67ADFED1F6A67EEA66ADDED037AB8EEE76AB4EEE66A36
:206C4000F1EE10FA19DD41F66A2241F66C21A35A615C43EA014343F3170307EE903AB8EEEE
:206C6000E77A77EE467A77EEA67AFDEEE77A17EE903AA352C3F30743B37041F66A2141F6DD
:206C80006C22635AA25C43EA024343F31702019B9342B8BF13466352C3F30743B37007B01A
:206CA000F0BD41F682230022E2542CE70000C842F0B500F5F35589B0044600230E4628468C
:206CC00002A902930393049331F02CFF284602A931F0ACF902A905A80EF0B6FD05AB03CB95
:206CE00041F6512562196051186851609060012110460EF0E5FC31462046FFF7B3FE04F5C6
:206D0000D25341F65422D3F81570A55C04F5D25304F5D350D3F8196041F652230930E35AB0
:206D200043EA05450EF0FBFB45F317050090394632462B4605A80EF0E5FB05AB03CB41F65C
:206D40005D25621960511868906004F5D3535160D3F80D1004F5D3530120D3F81120B4F974
:206D60006630009005A80EF0CDFB05AB03CB41F6752562196051186851609060B4F966309B
:206D800041F68122002BCCBF00230123A35409B0F0BDFFEC10B541F682230446C35C63B1B6
:206DA0000021FFF785FF2046FFF7CEFA20460221024ABDE8104002F059BB10BD74D5060820
:206DC00038B541F64F230422C25441F650230022C254044600F5FC50103000F1800101229F
:206DE00004F5F35537F040FE284631F013F968B9A86803685B6A984704F5DD5085ED220A4E
:206E000037F069FA04F5F85383ED000A20460021BDE8384006F0A1B810B541F6502304467E
:206E2000C35CD3B141F64F23C35C012B06D002D3022B06D011E0FFF7FFFA0EE0FFF70AFC43
:206E40000BE0B0F96630002B04DD41F6DC03C35C9B0720D52046FFF7B3FF41F64F23E35C3A
:206E6000042B1BD8DFE803F00303080D12002046BDE81040FFF74CBB2046BDE81040FFF760
:206E800005BC2046BDE81040FFF7D2BC2046BDE81040FFF7A1BDFFF7AFFCDEE710BDFFEC85
:206EA000D1ED006AD2ED007AF5EEC06AF1EE10FA04DDF5EEC07AF1EE10FA12D4F5EEC06AA1
:206EC000F1EE10FA04D5F5EEC07AF1EE10FA08DC9FED2B6AB0EEE77AB4EEC67AF1EE10FA1B
:206EE00002DDC1ED007A7047F5EEC06AF1EE10FADFED247AB0F96C301FDD042093FBF0F39E
:206F0000012BB8BF012326EEA77A07EE903AF8EEE77AB4EEE77AF1EE10FAD8BFB0EE677A6D
:206F200036EEC77A81ED007AD2ED007AB4EEE77AF1EE10FAC8BF0A461EE0042093FBF0F375
:206F4000012BB8BF012326EEE77A07EE903AF8EEE77AB4EEE77AF1EE10FAD8BFB0EE677AED
:206F600037EE267A81ED007AD2ED007AB4EEE77AF1EE10FA48BF0A4613680B60704700BF8C
:206F80000000E144CDCC4C3C00B52DED028BDFED110A83B0B7EE001A08EE101A08EE902AA6
:206FA00019F07EF8F7EE007A37EEC07AF8EEE87AB8EEC88A67EE277AE0EE087AFDEEE77AC2
:206FC000CDED017ABDF9040003B0BDEC028B5DF804FB00BF0000000037B50422B0F96C306F
:206FE00093FBF2F39BB21AB2002A1C4ADFED1C6AD2ED037A9FED1B7A0A88B5EEC00AD8BF30
:207000000123F1EE10FA67EEC07AAABF30EE260A36EEC00A87EE000A9BB20C46A2EB030180
:207020001A44054609B212B2B6BF87EE007A40EE277A47EE277AFDEEE77ACDED017ABDF9E8
:20704000040019F00BF82080B5F86E20514209B212B219F003F8208003B030BD4006002089
:20706000000070420000FA432DE9F041254C94F836300133DBB217465AB2272A2DED028B55
:20708000884602DC84F8363038E000F58256D6ED007A94ED0B0A94ED0A7ADFED1B8A9FEDA8
:2070A0001B8A27EE800AD6ED037AA7EE670A002384F83630354620EE280A61F013FC20EE18
:2070C000080AFDEEC07A17EE903AA8F80030D6ED037A94ED0B0A95ED007A27EE800AD4EDA8
:2070E0000A7AA7EE270A20EE680A61F0FBFB20EE080AFDEEC07A17EE903A3B80BDEC028B7A
:20710000BDE8F08140060020509C853A9F0CB345064B1A78052161F302021A70C822DA8373
:2071200000225A601A8F5A84704700BF40060020064B1A78052161F3C5021A70C8221A84DA
:2071400000229A605A8F9A84704700BF40060020024B00229A62DA62704700BF40060020AD
:2071600070B505460C460CF0FCFF08B904B970BDB5F97A305A4207EE903A00EE102A05F5D6
:20718000F3542046B8EEC00AF8EEE70A31F013FBB5F97C3000EE103A2046B8EEC00A31F043
:2071A00031FB204630F036FF68B9A06803685B6A984705F5DD5084ED220A37F08CF805F547
:2071C000F85383ED000AB5F96C20DFED1E7A1E4C07EE102AB8EEC77AF2EE0E6AE7EE267AFF
:2071E00041F6900200239FED197AAA5C636067EE877A22F07F02A3601E46C4ED037A02F04B
:20720000FF0123785AB1042262F3020305F5FC5062F3C5031030237037F04CFC04E003F0CC
:20722000F80361F3C50323706378E66243F0010363700023A6622386638684F836300120B7
:2072400070BD00BF0000BE42400600200AD7233C38B5274A938E0446154613B1013B93865F
:2072600038BD00F5DD5037F0CAF8F2EE047AB4EEE70AF1EE10FA3ADCD5ED0A6ADFED1D7A85
:20728000B0EEE67AB4EEE77A04F5F950F1EE10FA00F10800B0EE677A59BF9FED176AD0ED68
:2072A000007A0368AB625CBF67EE867A9FED136A0F4B58BFE6EE867AD5ED0B6A58BFC5ED1E
:2072C0000A7AF0EEE67AF4EEC77AF1EE10FA02D54268DA6238BD9FED087AD0ED017A67EE93
:2072E000877A9FED067AE6EE877AC3ED0B7A38BD40060020000000340AD7233B295C7F3F66
:207300002DE9F0472DED048B04469FEDB38A00F5DD5686B030468DED048A8DED058A36F059
:20732000D5FFB4F97A305A4207EE903A00EE102A04F5F358B8EEC00AF8EEE70A0546404643
:2073400031F039FAB4F97C3004F5C75A00EE103A0AF1100A4046B8EEC00A31F053FA9AF823
:20736000053004F5E75713F0010F07F10C0707D041F6900914F80920920601D5980616D4B1
:20738000012504F5FC508AF82850103037F092FB38469FED910AD4ED0E0A294632F042F94A
:2073A00040469FED8D0A31F0F5FA00F020BC41F6DC03E35C9B0700F1F183204607F0C6F9D0
:2073C000D4F8C8342046B3F9021000F0A1FCD4F8C434B3F90230B0EE409A00EE103A20467C
:2073E000B8EEC00A00F044FDB4F97A308DED040A5A4207EE903A00EE902AB8EEE71AF8EE7D
:20740000E00A18F04DFE04A9204605AA81ED000A0BF012FC14F8093019061CD504F5C55386
:207420001B788BB9DDED047AF5EEC07AF1EE10FA11DD94ED100A9FED691AF0EE480A18F057
:207440002FFE20460BF04CFB2046002103F0ECFE204600F0C1FC41F69103E35C5A0604D59D
:2074600004F5FC50103037F071FB41F69003E35C1B0635D5DDED047AF5EEC07AF1EE10FA72
:207480004CBF0123022304F5FC508AF82830103037F010FB384632F0E2F8D7F8883097ED82
:2074A0000D0AD3ED037A77EEC07A9FED4D0A384627EE800A32F0E4FA204600F0A1FBF0EE09
:2074C000401A9FED450A3846F0EE400AB0EE401A32F044FE40469FED400A31F05BFA59E367
:2074E000D4F8BC34B3F9023000EE103AD4F8C034B3F9023000EE903AB4F9043001EE103A4A
:207500002046B8EEC00AF8EEE00A02A903AAB8EEC11A00F08DFBD5ED006A95ED018A314DBD
:2075200004F58253D3ED007A93ED037A2B7867EE088A03F03F0327EE888A242BE7EEA68A0C
:20754000A6EEC78A06D0204605F1300105F13202FFF78AFD2B7803F00703052B00F2D78023
:20756000DFE813F0060044004400D500D5009E00DFF87090204609F1040102AAFFF790FC01
:20758000DDED027A9FED187AF0EEE77AF4EEC77AF1EE10FA10D5B4F96C3099ED017A5B00B2
:2075A00007EE903AF8EEE77AB0EEC77AB4EEE77AF1EE10FA00F1F582B5F9303095ED017A87
:2075C00007EE903AF8EEE77A77EE877AFDEEE77A17EE903A2B879AE00000000000007A443A
:2075E0009F0CB3454006002000000034DFF83893204609F11001B0EE480AFFF7EDFC2978CB
:2076000048061CD4B9F91030B9F91820002BB8BF5B429342BDBF3C225A43B4F96C30A9F8DB
:207620001830BFBF03EB83035B0041F0400192FBF3F3BEBF0133A9F8143089F80010F0EECB
:20764000C87AB2EE047AF4EEC77AF1EE10FA06D8B5F91430C82BC2BFB34BC8229A82AB8A41
:20766000B14ADDED027A9FEDB17A19B20029DBBF1378022103F1FF3361F30203CCBF9382B7
:207680001370F0EEE77A2A8E2B8AF4EE477A1344F1EE10FA2B873AD42046FFF739FD36E070
:2076A000DFF88492204609F1040102AAFFF7F8FBEB8B95ED017AB5F922101AB2002AD5BF06
:2076C00099F8003003F1FF336FF30203A9F81E30D8BF89F80030B5F91E3000EE103AB5F943
:2076E000303007EE903AF8EEE77AB8EEC00A77EE877A9FED8F7AFDEEE77A2046CDED017AD2
:2077000020EE070ABDF90420FFF73EFC28872B78C3F3C203052B00F2CA80DFE803F0033713
:2077200037C8C891DFF80092204609F1080103AAFFF7B6FBDDED037A9FED7C7AF0EEE77AC3
:20774000F4EEC77AF1EE10FA10D5B4F96C3099ED027A5B0007EE903AF8EEE77AB0EEC77AAD
:20776000B4EEE77AF1EE10FA00F12E82B5F9323095ED027A07EE903AF8EEE77A77EE877A02
:20778000FDEEE77A17EE903A6B8790E0DFF89891204609F11201B1EE680AFFF71DFC297838
:2077A0000A061CD4B9F91230B9F91A20002BB8BF5B429342BDBF3C225A43B4F96C30A9F874
:2077C0001A30BFBF03EB83035B0041F0800192FBF3F3BEBF0133A9F8163089F80010F0EEE6
:2077E000E87AB2EE047AF4EEC77AF1EE10FA06D8B5F91630C82BC2BF4B4BC822DA82EB8A66
:20780000494ADDED037A9FED497A19B20029DBBF1378022103F1FF3361F3C503CCBFD382E1
:207820001370F0EEE77A6A8E6B8AF4EE477A1344F1EE10FA6B873AD42046FFF779FC36E0CF
:20784000DFF8E490204609F1080103AAFFF728FB2B8C95ED027AB5F924101AB2002AD5BF8D
:2078600099F8003003F1FF336FF3C503A9F82030D8BF89F80030B5F9203000EE103AB5F9DA
:20788000323007EE903AF8EEE77AB8EEC00A77EE877A9FED277AFDEEE77A2046CDED017A96
:2078A00020EE070ABDF90420FFF76EFB688702238AF828302B78DFF8709003F03F02122A98
:2078C0001FD1032262F3020362F3C5034FF4167A304689F80030A9F81CA036F0F1FC99F821
:2078E0000120014604F5FC50103002F0010237F0BBF899F80130A9F834A06FF3000389F8AF
:2079000001302B78084E03F00702033A012A00F2078103F0070262F3C503032A33700BD09B
:20792000042A00F0A080FBE040060020000000340AD7A33B0E74DA3AB38B5FED027A1AB26D
:20794000002ADDBF3378042262F3020303F1FF33D6BF62F3C503B3833370B5F91C30A64E97
:2079600009EE903AF8EEE99AB0EE480A204606F1100169EEA79AFFF72FFB06F11201204657
:20798000B1EE680AFFF728FB04F59C5204F5FC50D2ED020A92ED010A9FED988A103037F027
:2079A000EBFA41F69C792B8A298E194454F80930D3ED1D7AFDEEE77AB0EE690ACDED017A5F
:2079C00009B2BDF904202046FFF7DEFA6B8A698E2887194454F80930D3ED1E7AFDEEE77ABD
:2079E0002046CDED017AB0EE690A09B2BDF90420FFF7CAFADDED027A6887F0EEE77AF4EE36
:207A0000487AF1EE10FA09D5DDED037AF0EEE77AF4EE487AF1EE10FA08D581E02046FFF730
:207A200077FB3378022262F3C5033370DDED037AF0EEE77AF4EE487AF1EE10FA70D4204688
:207A4000FFF776FBDDED027A9FED6C7AF0EEE77AF4EEC77AF1EE10FA62D52B78022262F369
:207A600002032B705CE004F59C5204F5FC5092ED010AD2ED020A9FED618A103037F07CFA55
:207A800041F69C732046E258D2ED1D7AFDEEE77A17EE903AD2ED1E7A3387FDEEE77A17EE2D
:207AA000903A7387FFF7D4FBDDED027AF0EEE77AF4EE487AF1EE10FA09D5DDED037AF0EE28
:207AC000E77AF4EE487AF1EE10FA0AD528E02046FFF71EFB3378022262F3C50333700023AA
:207AE0007382DDED037AF0EEE77AF4EE487AF1EE10FA15D42046FFF71BFBDDED027A9FED51
:207B00003F7AF0EEE77AF4EEC77AF1EE10FA41BF2B78022262F302032B7044BF00232B82D2
:207B2000A288B5F93800514209B212B218F096FA2887A288B5F93A00514209B212B218F0B0
:207B40008DFAB5F93830688708EE103A0646204600F056F8B8EEC88A07EE906AF0EE401A4A
:207B6000F8EEE70A3846B0EE480AB0EE491A04F5DC5432F0F3FA40469DED040AD4ED070A97
:207B8000002130F04FF940469DED050AD4ED070A30F0E2F9404630F0ADFF28E0B0EE489A96
:207BA00059E499F80030012262F3020300224FF4166162F38613A9F81020A9F81820A9F835
:207BC000141089F80030F7E499F80030012262F3C50300224FF4166162F3C713A9F8122016
:207BE000A9F81A20A9F8161089F80030BEE506B0BDEC048BBDE8F0874006002000000034EB
:207C000090F96B309FED057A07EE903AF8EEE77AB0EE000AA7EE870A704700BFCDCCCC3D49
:207C2000DFED027A20EE270A704700BF006F013B70B52DED048B04460E4615464FF47A71A7
:207C40004FF4FA52B0F90400F0EE609AB0EE418AF0EE408A18F002FA07EE900ADFED280A6E
:207C6000A080B8EEE71AB0EE480A18F019FAB4F904309FED248A07EE903AF8EEE77AB0EE73
:207C8000409A67EE887A67EEA88A27EEA98A68EEA87AE8EE087A17EE900A64F059FB41ECA0
:207CA000100B61F02BF951EC100B64F067FE07EE900AF4EEC97AF1EE10FAC2BF89EE279ACD
:207CC00028EE098A68EE898A9FED0F9A28EE090A60F0E4FEF0EE409A28EE890A61F018F840
:207CE00020EE290A60F0FEFDDFED087A20EE270A86ED000A85ED008ABDEC048B70BD00BFCE
:207D000000007A4453046939D40237399F0CB34507EE901AB8EEE70AD0EDA87A20EE270A6F
:207D20007047FFEC70B500F5C75510356B79DA07044649D541F69003C35C1B0644D441F6A0
:207D40009406815D00F0EAFC00283DD1A35D0B2B00D170BD04F5F753D3ED087A9FED1B7AC5
:207D6000F0EEE77AF4EE477AF1EE10FA2CD505F1200035F0F3FFDFED160A90ED000AB7EEF2
:207D8000001A18F08DF9B5EEC00AF1EE10FA1BDD04F5DA531B883B339BB2762B14D8D4F810
:207DA000483F40F2E63203F2F31393420CD8D4F84C3F03F2F313934206D828469FED050A30
:207DC000BDE8704033F00BB970BD00BF00000034000000000AD7233C00F5F35030F0E8B80F
:207DE00070B50646D0F8C4040C4632F0E2FB00210028CCBF05464FF4FA754FF47A722046CB
:207E000018F02CF9044606F5CB5090ED030ADFED160A9FED161A18F043F928B284420CDAD9
:207E200007EE904AF8EEE77A27EE800A07EE900AB8EEE77A80EE070A70BD14DD231A07EE28
:207E4000103AF7EE007A77EEC07AF8EEC76AC0F57A7326EEA77A07EE903AF8EEE77AC7EE31
:207E6000277A30EE270A70BDCDCCCC3D6666663F38B52DED068B41F6DC030446C35C03F0C8
:207E80000203B0EE408A03F0FF05002B56D1D0F8C4049FED2D9A32F08CFBB4F98E30DFED69
:207EA0002B0A01EE103A07EE900AF8EEC19AB0EE480AB0EE491AF8EEE78A18F0F1F838EE25
:207EC000E9AAB4F98E0029464FF4C872B0EE408A18F0C4F8B4EECA8AF1EE10FAA4F88E00B3
:207EE0000CD5B4F97A3000EE103A38EE4A8AB8EEC00A28EE000A80EE0A0A17E038EEA91A26
:207F0000B4EEC18AF1EE10FAC9BFB4F97A309FED0F0A78EE417A08EE103AC1BFB8EEC88A2E
:207F200039EE410A27EE888A88EE000A41F69C23FDEEC07A17EE902AE25201E09FED030AA0
:207F4000BDEC068B38BD00BF00007A440000000000F5CB50D0ED037A9FED060A67EE807A40
:207F60009FED050AF4EE407AF1EE10FA58BFB0EE670A7047ABAAAA3E0000000010B500F50D
:207F8000EA53044693ED070ADFED090AB7EE001A18F086F804F5CB53D3ED037A30EE670AC2
:207FA000DFED047A20EE270A84EDE40A10BD00BF0000000000007A4410B52DED028B0446D9
:207FC00000F5045082B0083039F0DCF810F0010FDFED1A8A12D004F50452134693ED070A56
:207FE000D2ED057A77EEC07A9FED150A204627EE800A0AF0AFFBB0EE408A01E0B0EE688A77
:2080000002A961ED018A04F5DD5036F0A9FC68B1B5EEC08AF1EE10FADDED017A04D9F4EEF8
:20802000C87AF1EE10FA01D5B0EE678A04F5FA5484ED058A02B0BDEC028B10BD00000000B4
:208040000000C84238B50F4A13780133DBB200F5DC54032B054604F1040401D813700EE09F
:20806000002300F5DD50137036F02AF905F5DB520146183228460AF02BFB84ED000A94EDAD
:20808000000A38BD7C060020F8B5044600F5DD5036F01CF9D0ED017A90ED007A67EEA77A46
:2080A0000546E7EE077A17EE900A64F051F941EC100B60F023FF204657EC106B0CF051F8BF
:2080C00004F5DC541034C0B13046394664F056FCDFED0B7A07EE100AB4EEE77AF1EE10FADB
:2080E0000BDD95ED010AD5ED000A61F021F8DFED057A20EE270A84ED000A94ED000AF8BD90
:208100000000C8429F0CB345034B1B68D86B036889B25B68184700BFC00700207047FFEC8E
:208120002DE9F0432DED028B3E4E327883B00446B146002A6ED100F5C75710377B790125C8
:2081400013EA0508357001D0327064E007F0F4FE054608B930705EE0204602F0FBFF41460D
:20816000204604F0ABFB204606F0CEFA41F69823D4F8502F9FED2C8AE25004F638701DF07B
:20818000B7FC04F5DD50B0EE480A36F050F904F25C7383ED008A41F69203E35C03F00C03DB
:2081A000042B02D1204603F00AFC20460BF0F3FD94F86E3F43F0040384F86E3F1B4B1B6888
:2081C0001B6C012620461E710DF0CCF800233846314689F8003033F0F1FD2046022102F0E6
:2081E00096FE022106230A46204600930B4602F089FE204602F0A0FF20460AF031FB3DF0DC
:208200000CF904F5045304F5C4541860E37C3343E37400E00025284603B0BDEC028BBDE853
:20822000F08300BF7D06002000000000C00700202DE9F04300F5C75710377B79DB0785B0D4
:20824000044652D500F5DD530025C3F84451C3F8485100F5C553002600F638781E704046D2
:208260001DF0F7FD40BB2046012102F0DDFF2046012103F00BF83846002133F09FFD384652
:20828000002132F0DDFF04F590501C302EF0B8FC94F86E3F6FF3820384F86E3F144B1B689D
:2082A0001A6C00231371134A04F5C4541370E27C63F30002E27418E094F81A38022BD2D1EE
:2082C0005FFA86F94046494601AA0195029503951DF0D6FF28B104F2DC70494601AA14F006
:2082E000F4FC002EBFD10126EAE705B0BDE8F083C00700207D060020F8B504463DF08DF8D8
:2083000000217F2294F9AE00534E17F0A7FED4F8C814D4F8BC54B1F902E05049D4F8C434A6
